{
  "contractName": "energyTrading",
  "abi": [
    {
      "constant": true,
      "inputs": [],
      "name": "owner",
      "outputs": [
        {
          "name": "",
          "type": "address"
        }
      ],
      "payable": false,
      "stateMutability": "view",
      "type": "function"
    },
    {
      "constant": true,
      "inputs": [],
      "name": "idCollective",
      "outputs": [
        {
          "name": "",
          "type": "uint256"
        }
      ],
      "payable": false,
      "stateMutability": "view",
      "type": "function"
    },
    {
      "inputs": [],
      "payable": false,
      "stateMutability": "nonpayable",
      "type": "constructor"
    },
    {
      "anonymous": false,
      "inputs": [
        {
          "indexed": false,
          "name": "accountAddress",
          "type": "address"
        }
      ],
      "name": "LogEnrolled",
      "type": "event"
    },
    {
      "anonymous": false,
      "inputs": [
        {
          "indexed": false,
          "name": "accountAddress",
          "type": "address"
        },
        {
          "indexed": false,
          "name": "amount",
          "type": "uint256"
        }
      ],
      "name": "LogPaymentMade",
      "type": "event"
    },
    {
      "anonymous": false,
      "inputs": [
        {
          "indexed": false,
          "name": "information",
          "type": "string"
        },
        {
          "indexed": false,
          "name": "totalHomes",
          "type": "uint256"
        },
        {
          "indexed": false,
          "name": "collectiveId",
          "type": "uint256"
        }
      ],
      "name": "LogCollectiveAdded",
      "type": "event"
    }
  ],
  "bytecode": "0x6080604052609660015534801561001557600080fd5b50336000806101000a81548173ffffffffffffffffffffffffffffffffffffffff021916908373ffffffffffffffffffffffffffffffffffffffff16021790555060f2806100646000396000f3fe6080604052348015600f57600080fd5b506004361060325760003560e01c80638da5cb5b146037578063d3b80b1714607f575b600080fd5b603d609b565b604051808273ffffffffffffffffffffffffffffffffffffffff1673ffffffffffffffffffffffffffffffffffffffff16815260200191505060405180910390f35b608560c0565b6040518082815260200191505060405180910390f35b6000809054906101000a900473ffffffffffffffffffffffffffffffffffffffff1681565b6002548156fea165627a7a723058204d663b236fa5da7b6fbcbc0df865f801aac5b6b98dae7532b946eb165270fe730029",
  "source": "pragma solidity >=0.4.21 <0.6.0;\n\n/**\n * The energyTrading contract manages collectives and allows home owners to transact\n between each other. Energy producers can sell their energy and buyers pay for it in ether.\n The company or contract owner handles changes in home owners and the creation of new collectives.\n */\ncontract energyTrading {\n\n   /*\n        Define an public owner variable. Set it to the creator of the contract when it is initialized.\n        Here, owner represents the energy company.\n    */\n\n  address payable public owner;\n  //Fix price per KW. Random value which will be adjusted in real-time in future upgrades.\n  uint ENERGY_UNIT_PRICE = 150 wei;\n\n  //create a variable to keep track of the collectives with indexed ids.\n  uint public idCollective;\n\n\n  /*Define a Collective Struct with 5 fields. Note that here home owners (and their balances) in the collective\n  are seperated into Producers - those who own our solar panels and produce energy - and\n  buyers - those who collaborate with producers and pay a fee in exchnage for a certian amount of their energy */\n  struct Producer {\n    address addr;\n    uint amount;\n  }\n\n  struct Buyer {\n    address addr;\n    uint amount;\n  }\n\n\n  struct Collective {\n    string information;\n    uint totalHomes;\n    bool isOpen;\n    mapping (uint => Producer) producers;\n    mapping (uint => Buyer) buyers;\n  }\n\n  //  Create a mapping to keep track of the collectives.\n  mapping (uint => Collective) collectives;\n\n\n  // Not all home owners in a collective are enrolled in our Energy Trading program.\n  //We account for this with an enrolled mapping.\n  mapping (address => bool) enrolled;\n\n  //Events section - each time the state is modified, we emit.\n  event LogEnrolled(address accountAddress);\n  event LogPaymentMade(address accountAddress, uint amount);\n  event LogCollectiveAdded(string information, uint totalHomes, uint collectiveId);\n\n  // Constructor, can receive one or many variables here; only one allowed\n  constructor() public {\n      /* Set the owner to the creator of this contract */\n      owner = msg.sender;\n  }\n\n}\n",
  "sourcePath": "/Users/victorgardrinier/code/MyPrivateBlockchain/final_project_v1/contracts/energyTrading.sol",
  "compiler": {
    "name": "solc",
    "version": "0.5.8+commit.23d335f2.Emscripten.clang"
  },
  "schemaVersion": "3.0.11",
  "updatedAt": "2019-07-27T19:47:23.501Z",
  "devdoc": {
    "methods": {}
  },
  "userdoc": {
    "methods": {},
    "notice": "The energyTrading contract manages collectives and allows home owners to transact between each other. Energy producers can sell their energy and buyers pay for it in ether. The company or contract owner handles changes in home owners and the creation of new collectives."
  }
}